:10000000A6C00000C0C00000BEC00000BCC0000010
:10001000BAC00000B8C00000B6C00000B4C0000004
:10002000B2C00000B0C00000AEC0000099C5000022
:10003000AAC00000A8C00000A6C00000A4C0000024
:10004000A2C00000A0C000009EC000009CC0000034
:100050009AC0000098C0000096C0000094C0000044
:1000600092C0000090C000008EC000008CC0000054
:100070008AC00000240350004F004B004B00450095
:100080004E00200043004F004E00540052004F002D
:100090004C004C004500520000001C0348004F007B
:1000A00052004900200043004F002E002C004C005D
:1000B000540044002E000000040309040902290032
:1000C00001010080FA090400000203000000092178
:1000D0001101000122560007050203400005070533
:1000E000810340000512010002000000400D0F9244
:1000F0000000010102000105010905A1011500250B
:100100000135004501750195100509190129108176
:100110000205012507463B0175049501651409395F
:10012000814265009501810126FF0046FF000930EC
:100130000931093209357508950481020600FF0965
:1001400020950181020A212695089102C000112400
:100150001FBECFEFD2E0DEBFCDBF11E0A0E0B1E027
:10016000E4E5F2E102C005900D92A834B107D9F799
:1001700021E0A8E4B1E001C01D92AC35B207E1F77F
:100180005FD10C9428093CCF84B7877F84BF0FB61A
:10019000F894A89580916000886180936000109227
:1001A00060000FBE80E890E00FB6F8948093610085
:1001B000909361000FBE8FEF8AB91BB884B915B850
:1001C000C0C40895089542E360EC82E0FFD342E3A7
:1001D00061EC81E0FBC30895CF93DF93EC0160E015
:1001E00075D1809104018823F1F0809102019091F2
:1001F0000301892BC1F0809148018BB9809148019E
:1002000085B96091020170910301072E000C880BE3
:10021000990B59D75AD21092040181E08093490179
:10022000DF91CF910895809149018823D9F0809181
:10023000000190910101892BA9F0809148018095DE
:100240008BB980914801809585B9609100017091CA
:100250000101072E000C880B990B35D736D210926E
:100260004901DECF80914E01813009F449C098F0F8
:10027000823009F475C08091020190910301892BAD
:1002800031F482E390E0909303018093020181E0D6
:1002900080930401C5CF80914C0190914D0185362A
:1002A0009105CCF010924D0110924C0110924B012F
:1002B00010924A0181E080934E0180914C0190910F
:1002C0004D01019690934D0180934C0110920101D4
:1002D00010920001D0CF8931910519F08233910538
:1002E00039F46DE0CE01F2D06EE0CE01EFD0E5CF73
:1002F0008B34910519F084369105F9F669E0F5CF54
:1003000080914A0190914B0163E070E090D7815D4C
:100310009E4FFC016081CE01D9D020914A013091DD
:100320004B01C90163E070E082D7815D9E4FFC0103
:100330008181928190930101809300012F5F3F4F53
:1003400030934B0120934A012830310508F493CFB4
:1003500082E080934E0110924B0110924A018BCFA4
:1003600080914A0190914B0163E070E060D78B5F10
:100370009E4FFC016081CE01A9D020914A013091AD
:100380004B01C90163E070E052D78B5F9E4FFC01C7
:100390008181928190930101809300012F5F3F4FF3
:1003A0002E303105C0F630934B0120934A0163CFC4
:1003B000CF93DF93CDB7DEB728970FB6F894DEBFA3
:1003C0000FBECDBF80915301843089F582E08093C8
:1003D000E9008091E80082FF12C08091E80085FF6B
:1003E00009C050E040E067E070E0CE010196E7D13F
:1003F0008111F7CF8091E8008B778093E80081E04E
:100400008093E9008091E80080FF11C0CE01019641
:10041000E3DE50E040E068E070E0CE01019681D17B
:100420008111F7CF8091E8008E778093E8002896BD
:100430000FB6F894DEBF0FBECDBFDF91CF91089508
:10044000A3DE7894B5DF8CD5FDCF292F3327233059
:10045000310521F158F42130310599F02230310570
:10046000C1F090E080E030E020E00FC021323105A3
:1004700041F122323105A9F786E590E027EF30E01F
:1004800004C082E190E025EE30E0FA013183208360
:10049000089589E290E02CEB30E0F7CF9927813086
:1004A000910561F028F00297E1F6E4E7F0E002C080
:1004B000E8EBF0E0849190E09F01E7CFEAE9F0E01B
:1004C000F9CF89E090E02EEC30E0DFCFFC01633122
:1004D00009F4BFC0F0F5693009F491C0F0F464305C
:1004E00009F485C068F4613009F47CC008F46FC079
:1004F000623009F479C081E0633009F476C0089570
:10050000663009F478C008F474C0673009F475C027
:1005100082E0683009F469C008956E3009F485C03E
:1005200060F46B3009F475C008F46FC06C3009F4E6
:1005300074C06D3009F475C00895603109F47DC050
:1005400008F477C0613109F47CC0623109F47DC0E0
:1005500008956D3109F49DC0E8F4683109F489C04B
:1005600068F4653109F47DC008F477C0663109F498
:100570007CC080E8673109F480C008956A3109F4CD
:100580007EC008F479C06B3109F47EC06C3109F487
:100590007DC00895633209F488C068F46F3109F4AE
:1005A0007EC008F479C0613209F47CC08FEF6232FA
:1005B00009F476C00895653209F47EC008F47AC063
:1005C000663209F47CC0673209F47CC00895118258
:1005D000108280E8838384838583868388E0828396
:1005E000178208951282089587E0828308956283B6
:1005F000089585E0FACF83E0F8CF86E0F6CF8081DA
:10060000918184609183808308958081918182604B
:10061000F9CF808191818860F5CF8081918181605F
:10062000F1CF808191818061EDCF80819181806265
:10063000E9CF808191818064E5CF8081918180685C
:10064000E1CF808191819260DDCF80819181916045
:10065000D9CF808191819061D5CF80819181906245
:10066000D1CF808191819460CDCF8081918198603C
:10067000C9CF1382148208958FEF8383FBCF80E864
:1006800083838FEF848308951382FBCF8FEF83835F
:10069000F9CF138280E8F6CF8FEF8383FBCF80E81A
:1006A000858301C015821682089580E885838FEFC7
:1006B000868308951582FBCF8FEF8583F9CF15824E
:1006C00080E8F6CF8FEF8583FBCFCF92DF92EF925A
:1006D000FF92C6D49B0177FF04C022273327261B35
:1006E000370BB901330F880B990BEDD46B017C01EB
:1006F00020E030E0A90173D518162CF0FF90EF90A0
:10070000DF90CF9008958FE99FE00197F1F700C047
:10071000000020E030E040E85FE3C701B6013BD4D1
:10072000E5CFAF92BF92CF92DF92FF920F931F93CC
:10073000CF93DF936C01EB018A019BD1F82E8111DD
:1007400024C00115110539F0F80180819181C81B81
:10075000D90BC80ED91EB12CA12C2097B1F08091D5
:10076000E80085FD22C08091E8008E778093E80044
:10077000F7D301151105A1F0F80180819181A80E30
:10078000B91EB182A08285E0F82E8F2DDF91CF9126
:100790001F910F91FF90DF90CF90BF90AF90089581
:1007A00068D18823D1F2F82EF0CFF60181916F0144
:1007B0008093F1002197FFEFAF1ABF0ACECFAF921F
:1007C000BF92CF92DF92FF920F931F93CF93DF934D
:1007D0006C01EB018A014DD1F82E811124C0011565
:1007E000110539F0F80180819181C81BD90BC80E21
:1007F000D91EB12CA12C2097B1F08091E80085FD85
:1008000022C08091E8008B778093E800A9D301157E
:100810001105A1F0F80180819181A80EB91EB18265
:10082000A08285E0F82E8F2DDF91CF911F910F913F
:10083000FF90DF90CF90BF90AF9008951AD188239A
:10084000D1F2F82EF0CF8091F100F60181936F0183
:100850002197FFEFAF1ABF0ACECFFC0180915A015A
:1008600090915B0186179707A0F06115710529F437
:100870009091E8009E779093E80090E061157105F3
:1008800051F4911108C08091E80082FF32C080E0ED
:100890000895BC01F2CF809153018823B1F18530D6
:1008A000B1F18091E80083FD2EC08091E80082FDC7
:1008B000EACF8091E80080FFE1CF2091F20030E0A4
:1008C0006115710519F02034310558F091E020349C
:1008D000310509F090E02091E8002E772093E800A0
:1008E000CDCF81918093F100615071092F5F3F4F0F
:1008F000E7CF80915301882341F0853041F080910A
:10090000E80083FFC0CF81E0089582E0089583E08E
:100910000895FC0180915A0190915B018617970719
:10092000A0F06115710529F48091E8008E7780931D
:10093000E80090E06115710551F4911108C08091B3
:10094000E80082FF33C080E00895BC01F2CF8091BF
:1009500053018823B9F18530B9F18091E80083FD16
:100960002FC08091E80082FDEACF8091E80080FFEF
:10097000E1CF2091F20030E06115710519F02034CB
:10098000310558F091E02034310509F090E0809174
:10099000E8008E778093E800CDCF84918093F100BA
:1009A0003196615071092F5F3F4FE6CF809153011F
:1009B000882341F0853041F08091E80083FFBFCF6C
:1009C00081E0089582E0089583E00895982F95309E
:1009D00028F08F708093E90081E008959093E900FA
:1009E000242F762F50E0981731F07091EC00209171
:1009F000ED005091F00021FD02C09F5FE8CF3091E3
:100A0000EB003E7F3093EB003091ED003D7F309363
:100A1000ED003091EB0031603093EB007093EC000F
:100A20002093ED005093F0002091EE0027FDE5CFDC
:100A300080E008958091540187FF13C08091E80001
:100A400082FF06C08091E8008B778093E80004C0A5
:100A5000809153018111F2CF089580915301882331
:100A6000D9F38091E80080FFF8CF8091E8008E777D
:100A7000ECCF2091E4003091E50085E69091EC0008
:100A800090FF06C09091E80090FF06C080E00895B6
:100A90009091E80092FDFACF90915301992391F043
:100AA000953091F09091EB0095FD10C04091E400DD
:100AB0005091E5002417350709F381509A01F1F6AA
:100AC00084E0089582E0089583E0089581E0089528
:100AD00041D043D08091D8008F778093D800809107
:100AE000D80080688093D8008091D8008F7D809353
:100AF000D80084E089BD86E089BD09B400FEFDCF41
:100B00001092530110924F01109251011092500116
:100B100042E360E080E05ADF8091E1008E7F8093C5
:100B2000E1008091E20081608093E2008091E20028
:100B300088608093E2008091E0008E7F8093E000E7
:100B40000895E3E6F0E080818E7F808381E08093EA
:100B50005201BECF1092E20008951092E100089574
:100B60001F920F920FB60F9211242F933F934F9322
:100B70005F936F937F938F939F93AF93BF93EF9305
:100B8000FF938091E10082FF0AC08091E20082FF22
:100B900006C08091E1008B7F8093E100E0D18091DD
:100BA000E10080FF17C08091E20080FF13C08091B8
:100BB000E2008E7F8093E2008091E200806180936A
:100BC000E2008091D80080628093D80019BC109216
:100BD0005301F8DA8091E10084FF27C08091E200A0
:100BE00084FF23C084E089BD86E089BD09B400FE8E
:100BF000FDCF8091D8008F7D8093D8008091E10057
:100C00008F7E8093E1008091E2008F7E8093E200EE
:100C10008091E20081608093E20080914F018823FF
:100C2000D9F184E080935301CCDA8091E10083FF15
:100C300022C08091E20083FF1EC08091E100877F87
:100C40008093E10082E08093530110924F018091E4
:100C5000E1008E7F8093E1008091E2008E7F80939F
:100C6000E2008091E20080618093E20042E360E074
:100C700080E0ACDE74D1FF91EF91BF91AF919F9175
:100C80008F917F916F915F914F913F912F910F9035
:100C90000FBE0F901F9018958091E30087FD02C052
:100CA00081E0C0CF83E0BECF1F93CF93DF93CDB75A
:100CB000DEB7AA970FB6F894DEBF0FBECDBFE4E54E
:100CC000F1E08091F100819321E0EC35F207C9F762
:100CD00082DA8091E80083FF10C0809154019091E6
:100CE0005501953009F4D8C000F5913009F48BC056
:100CF00008F461C0933009F486C08091E80083FF56
:100D00000AC08091E800877F8093E8008091EB0023
:100D100080628093EB00AA960FB6F894DEBF0FBEF8
:100D2000CDBFDF91CF911F910895983009F4ECC0A9
:100D3000993009F4F6C0963001F780588230E8F611
:100D400080915601909157018C3D23E0920709F064
:100D5000C6C083E08A838AE289834FB7F894DE01B4
:100D6000139620E03EE051E2E32FF0E0509357006D
:100D7000E49120FF03C0E295EF703F5FEF708E2F8C
:100D800090E0EA3008F4A9C0C7968D939D932F5F39
:100D9000243151F74FBF8091E800877F8093E800AE
:100DA0006AE270E0CE01019658DD8091E8008B7711
:100DB0008093E800A2CF803899F0823809F09DCF67
:100DC000809158018F70853008F097CF8093E900AB
:100DD0008091EB0085FB882780F91092E90006C01E
:100DE0008091500190915101911182609091E800A1
:100DF000977F9093E8008093F1001092F10080912A
:100E0000E8008E7732C0282F2D7F09F076CF882317
:100E1000E9F0823009F071CF80915601811120C034
:100E2000809158018F702FEF280F243008F065CF84
:100E30008093E9002091EB0020FF12C09330C9F4A9
:100E40008091EB0080628093EB000AC08091560194
:100E5000813009F052CF933009F080E08093510146
:100E60001092E9008091E800877F8093E800E2DD3E
:100E700044CF9091EB0090619093EB0021E030E043
:100E800001C0220F8A95EAF72093EA001092EA0047
:100E90008091EB008860D7CF81112FCF1091560140
:100EA0001F778091E3008078812B8093E30080910D
:100EB000E800877F8093E800BDDD8091E80080FF37
:100EC000FCCF8091E30080688093E30083E0111100
:100ED00001C082E08093530110CFC09656CF60913D
:100EE000580170915901AE014F5F5F4FAEDABC01FE
:100EF000892B09F402CF9091E800977F9093E80046
:100F000089819A8106DD51CF803809F0F6CE809133
:100F1000E800877F8093E80080914F018093F10083
:100F20006ECF8111EACE90915601923008F0E5CE55
:100F30008091E800877F8093E80090934F017ADDED
:100F400080914F01882329F084E0809353013BD99D
:100F5000D4CE8091E30087FDF7CF81E0F6CF0895EE
:100F6000CF9380915301882391F0C091E900CF7015
:100F70008091EC0080FD0DC080E0C82B1092E9004C
:100F80008091E80083FD90DECF70C093E900CF919F
:100F9000089580E8F2CF5058BB27AA270ED0E5C0AD
:100FA000D6D030F0DBD020F031F49F3F11F41EF4A6
:100FB000CBC00EF4E095E7FBC1C0E92FE7D080F38A
:100FC000BA17620773078407950718F071F49EF546
:100FD000FFC00EF4E0950B2EBA2FA02D0B01B90126
:100FE00090010C01CA01A0011124FF27591B99F09F
:100FF000593F50F4503E68F11A16F040A22F232FAB
:10100000342F4427585FF3CF469537952795A795FA
:10101000F0405395C9F77EF41F16BA0B620B730BA1
:10102000840BBAF09150A1F0FF0FBB1F661F771F12
:10103000881FC2F70EC0BA0F621F731F841F48F4C7
:10104000879577956795B795F7959E3F08F0B3CF4D
:101050009395880F08F09927EE0F97958795089537
:1010600004D06894B111B5C0089598D088F09F5706
:1010700090F0B92F9927B751A0F0D1F0660F771FE4
:10108000881F991F1AF0BA95C9F712C0B13081F0C4
:101090009FD0B1E008959CC0672F782F8827B85F54
:1010A00039F0B93FCCF3869577956795B395D9F725
:1010B0003EF490958095709561957F4F8F4F9F4F2F
:1010C0000895E89409C097FB3EF49095809570953B
:1010D00061957F4F8F4F9F4F9923A9F0F92F96E984
:1010E000BB279395F695879577956795B795F111F9
:1010F000F8CFFAF4BB0F11F460FF1BC06F5F7F4F96
:101100008F4F9F4F16C0882311F096E911C07723A7
:1011100021F09EE8872F762F05C0662371F096E8B0
:10112000862F70E060E02AF09A95660F771F881F7F
:10113000DAF7880F9695879597F9089597F99F673D
:1011400080E870E060E008959FEF80EC089500244F
:101150000A941616170618060906089500240A941C
:1011600012161306140605060895092E0394000CA2
:1011700011F4882352F0BB0F40F4BF2B11F460FF31
:1011800004C06F5F7F4F8F4F9F4F089557FD90585A
:10119000440F551F59F05F3F71F04795880F97FB3B
:1011A000991F61F09F3F79F08795089512161306F5
:1011B0001406551FF2CF4695F1DF08C01616170624
:1011C0001806991FF1CF8695710561050894089559
:1011D000E894BB2766277727CB0197F9089503D0BA
:1011E00008F48FEF0895990F0008550FAA0BE0E857
:1011F000FEEF16161706E807F907C0F012161306D9
:10120000E407F50798F0621B730B840B950B39F418
:101210000A2661F0232B242B252B21F408950A267E
:1012200009F4A140A6958FEF811D811D089500242A
:10123000552704C0080E591F880F991F009729F0E1
:1012400076956795B8F37105B9F7802D952F0895B8
:04125000F894FFCF40
:10125400320032000108F40109E80301F40109E84D
:101264000301320001320009F40109D00701320000
:1012740009204E11F40109D00709F4010AB80B0A38
:10128400D00711DC0508320008320008320009E8F2
:081294000308320009B80B0049
:00000001FF
